{
  "_format": "hh-sol-artifact-1",
  "contractName": "DAOVoting",
  "sourceName": "contracts/votingContract.sol",
  "abi": [
    {
      "inputs": [],
      "stateMutability": "nonpayable",
      "type": "constructor"
    },
    {
      "anonymous": false,
      "inputs": [
        {
          "indexed": false,
          "internalType": "uint256",
          "name": "id",
          "type": "uint256"
        },
        {
          "indexed": false,
          "internalType": "bool",
          "name": "approved",
          "type": "bool"
        }
      ],
      "name": "ProposalClosed",
      "type": "event"
    },
    {
      "anonymous": false,
      "inputs": [
        {
          "indexed": false,
          "internalType": "uint256",
          "name": "id",
          "type": "uint256"
        },
        {
          "indexed": false,
          "internalType": "string",
          "name": "description",
          "type": "string"
        }
      ],
      "name": "ProposalCreated",
      "type": "event"
    },
    {
      "anonymous": false,
      "inputs": [
        {
          "indexed": false,
          "internalType": "address",
          "name": "voter",
          "type": "address"
        },
        {
          "indexed": false,
          "internalType": "uint256",
          "name": "proposalId",
          "type": "uint256"
        },
        {
          "indexed": false,
          "internalType": "bool",
          "name": "votePro",
          "type": "bool"
        },
        {
          "indexed": false,
          "internalType": "uint256",
          "name": "voteWeight",
          "type": "uint256"
        }
      ],
      "name": "VoteCasted",
      "type": "event"
    },
    {
      "inputs": [],
      "name": "MyDAO",
      "outputs": [
        {
          "internalType": "contract DAOContract",
          "name": "",
          "type": "address"
        }
      ],
      "stateMutability": "view",
      "type": "function"
    },
    {
      "inputs": [
        {
          "internalType": "uint256",
          "name": "_proposalId",
          "type": "uint256"
        }
      ],
      "name": "closeProposal",
      "outputs": [],
      "stateMutability": "nonpayable",
      "type": "function"
    },
    {
      "inputs": [
        {
          "internalType": "string",
          "name": "_description",
          "type": "string"
        }
      ],
      "name": "createProposal",
      "outputs": [],
      "stateMutability": "nonpayable",
      "type": "function"
    },
    {
      "inputs": [],
      "name": "getAcceptedProposals",
      "outputs": [
        {
          "internalType": "uint256[]",
          "name": "ids",
          "type": "uint256[]"
        },
        {
          "internalType": "string[]",
          "name": "descriptions",
          "type": "string[]"
        }
      ],
      "stateMutability": "view",
      "type": "function"
    },
    {
      "inputs": [],
      "name": "getAllProposals",
      "outputs": [
        {
          "internalType": "uint256[]",
          "name": "ids",
          "type": "uint256[]"
        },
        {
          "internalType": "string[]",
          "name": "descriptions",
          "type": "string[]"
        },
        {
          "internalType": "bool[]",
          "name": "active",
          "type": "bool[]"
        },
        {
          "internalType": "bool[]",
          "name": "accepted",
          "type": "bool[]"
        }
      ],
      "stateMutability": "view",
      "type": "function"
    },
    {
      "inputs": [],
      "name": "getRejectedProposals",
      "outputs": [
        {
          "internalType": "uint256[]",
          "name": "ids",
          "type": "uint256[]"
        },
        {
          "internalType": "string[]",
          "name": "descriptions",
          "type": "string[]"
        }
      ],
      "stateMutability": "view",
      "type": "function"
    },
    {
      "inputs": [
        {
          "internalType": "uint256",
          "name": "_proposalId",
          "type": "uint256"
        }
      ],
      "name": "isProposalExpired",
      "outputs": [
        {
          "internalType": "bool",
          "name": "",
          "type": "bool"
        }
      ],
      "stateMutability": "view",
      "type": "function"
    },
    {
      "inputs": [],
      "name": "owner",
      "outputs": [
        {
          "internalType": "address",
          "name": "",
          "type": "address"
        }
      ],
      "stateMutability": "view",
      "type": "function"
    },
    {
      "inputs": [],
      "name": "proposalCount",
      "outputs": [
        {
          "internalType": "uint256",
          "name": "",
          "type": "uint256"
        }
      ],
      "stateMutability": "view",
      "type": "function"
    },
    {
      "inputs": [
        {
          "internalType": "uint256",
          "name": "",
          "type": "uint256"
        }
      ],
      "name": "proposals",
      "outputs": [
        {
          "internalType": "uint256",
          "name": "id",
          "type": "uint256"
        },
        {
          "internalType": "string",
          "name": "description",
          "type": "string"
        },
        {
          "internalType": "uint256",
          "name": "votesPro",
          "type": "uint256"
        },
        {
          "internalType": "uint256",
          "name": "votesAgainst",
          "type": "uint256"
        },
        {
          "internalType": "bool",
          "name": "active",
          "type": "bool"
        },
        {
          "internalType": "address",
          "name": "proposer",
          "type": "address"
        },
        {
          "internalType": "uint256",
          "name": "creationTime",
          "type": "uint256"
        },
        {
          "internalType": "uint256",
          "name": "duration",
          "type": "uint256"
        },
        {
          "internalType": "bool",
          "name": "accepted",
          "type": "bool"
        }
      ],
      "stateMutability": "view",
      "type": "function"
    },
    {
      "inputs": [
        {
          "internalType": "address",
          "name": "_daoContract",
          "type": "address"
        }
      ],
      "name": "setDAOContract",
      "outputs": [],
      "stateMutability": "nonpayable",
      "type": "function"
    },
    {
      "inputs": [
        {
          "internalType": "uint256",
          "name": "_proposalId",
          "type": "uint256"
        },
        {
          "internalType": "bool",
          "name": "_votePro",
          "type": "bool"
        }
      ],
      "name": "voteOnProposal",
      "outputs": [],
      "stateMutability": "nonpayable",
      "type": "function"
    }
  ],
  "bytecode": "0x6080604052348015600f57600080fd5b50336000806101000a81548173ffffffffffffffffffffffffffffffffffffffff021916908373ffffffffffffffffffffffffffffffffffffffff16021790555060006002819055506126af806100676000396000f3fe608060405234801561001057600080fd5b50600436106100b45760003560e01c80637423fe7c116100715780637423fe7c14610191578063809b2350146101af5780638da5cb5b146101ce578063cceb68f5146101ec578063da35c6641461020d578063e30c75611461022b576100b4565b8063013cf08b146100b95780630386a016146100f15780631614665c1461010d578063425d512a1461012957806349c2a1a6146101455780634ff2f81414610161575b600080fd5b6100d360048036038101906100ce91906115df565b61024a565b6040516100e899989796959493929190611707565b60405180910390f35b61010b600480360381019061010691906115df565b61035a565b005b610127600480360381019061012291906117c7565b610579565b005b610143600480360381019061013e9190611833565b6109a5565b005b61015f600480360381019061015a9190611995565b610a77565b005b61017b600480360381019061017691906115df565b610d09565b60405161018891906119de565b60405180910390f35b610199610d59565b6040516101a69190611a58565b60405180910390f35b6101b7610d7f565b6040516101c5929190611c3d565b60405180910390f35b6101d661102c565b6040516101e39190611c74565b60405180910390f35b6101f4611050565b6040516102049493929190611d4d565b60405180910390f35b61021561133e565b6040516102229190611dae565b60405180910390f35b610233611344565b604051610241929190611c3d565b60405180910390f35b600360205280600052604060002060009150905080600001549080600101805461027390611df8565b80601f016020809104026020016040519081016040528092919081815260200182805461029f90611df8565b80156102ec5780601f106102c1576101008083540402835291602001916102ec565b820191906000526020600020905b8154815290600101906020018083116102cf57829003601f168201915b5050505050908060020154908060030154908060040160009054906101000a900460ff16908060040160019054906101000a900473ffffffffffffffffffffffffffffffffffffffff16908060050154908060060154908060070160009054906101000a900460ff16905089565b60006003600083815260200190815260200160002090508060040160009054906101000a900460ff166103c2576040517f08c379a00000000000000000000000000000000000000000000000000000000081526004016103b990611e75565b60405180910390fd5b8060040160019054906101000a900473ffffffffffffffffffffffffffffffffffffffff1673ffffffffffffffffffffffffffffffffffffffff163373ffffffffffffffffffffffffffffffffffffffff16148061046b575060008054906101000a900473ffffffffffffffffffffffffffffffffffffffff1673ffffffffffffffffffffffffffffffffffffffff163373ffffffffffffffffffffffffffffffffffffffff16145b6104aa576040517f08c379a00000000000000000000000000000000000000000000000000000000081526004016104a190611f07565b60405180910390fd5b806006015481600501546104be9190611f56565b4211156104e75760008160040160006101000a81548160ff021916908315150217905550610575565b80600301548160020154118160070160006101000a81548160ff02191690831515021790555060008160040160006101000a81548160ff0219169083151502179055507faffed5d901d9fbe9106721fa52653ede403c09699f9f810f6d378acc51fb50fa828260070160009054906101000a900460ff1660405161056c929190611f8a565b60405180910390a15b5050565b600073ffffffffffffffffffffffffffffffffffffffff16600160009054906101000a900473ffffffffffffffffffffffffffffffffffffffff1673ffffffffffffffffffffffffffffffffffffffff160361060a576040517f08c379a000000000000000000000000000000000000000000000000000000000815260040161060190611fff565b60405180910390fd5b60011515600160009054906101000a900473ffffffffffffffffffffffffffffffffffffffff1673ffffffffffffffffffffffffffffffffffffffff1663a230c524336040518263ffffffff1660e01b81526004016106699190611c74565b602060405180830381865afa158015610686573d6000803e3d6000fd5b505050506040513d601f19601f820116820180604052508101906106aa9190612034565b1515146106ec576040517f08c379a00000000000000000000000000000000000000000000000000000000081526004016106e3906120ad565b60405180910390fd5b60006003600084815260200190815260200160002090508060040160009054906101000a900460ff16610754576040517f08c379a000000000000000000000000000000000000000000000000000000000815260040161074b90612119565b60405180910390fd5b8060080160003373ffffffffffffffffffffffffffffffffffffffff1673ffffffffffffffffffffffffffffffffffffffff16815260200190815260200160002060009054906101000a900460ff16156107e3576040517f08c379a00000000000000000000000000000000000000000000000000000000081526004016107da90612185565b60405180910390fd5b6000600160009054906101000a900473ffffffffffffffffffffffffffffffffffffffff1673ffffffffffffffffffffffffffffffffffffffff16631810d859336040518263ffffffff1660e01b81526004016108409190611c74565b602060405180830381865afa15801561085d573d6000803e3d6000fd5b505050506040513d601f19601f8201168201806040525081019061088191906121ba565b9050600081116108c6576040517f08c379a00000000000000000000000000000000000000000000000000000000081526004016108bd90612233565b60405180910390fd5b60018260080160003373ffffffffffffffffffffffffffffffffffffffff1673ffffffffffffffffffffffffffffffffffffffff16815260200190815260200160002060006101000a81548160ff0219169083151502179055508215610946578082600201600082825461093a9190611f56565b92505081905550610962565b8082600301600082825461095a9190611f56565b925050819055505b7fd388bceb969b9a332d7321cf1bd5badec45b48dd92e5b986e5f2e258619e8adf338585846040516109979493929190612253565b60405180910390a150505050565b60008054906101000a900473ffffffffffffffffffffffffffffffffffffffff1673ffffffffffffffffffffffffffffffffffffffff163373ffffffffffffffffffffffffffffffffffffffff1614610a33576040517f08c379a0000000000000000000000000000000000000000000000000000000008152600401610a2a9061230a565b60405180910390fd5b80600160006101000a81548173ffffffffffffffffffffffffffffffffffffffff021916908373ffffffffffffffffffffffffffffffffffffffff16021790555050565b600073ffffffffffffffffffffffffffffffffffffffff16600160009054906101000a900473ffffffffffffffffffffffffffffffffffffffff1673ffffffffffffffffffffffffffffffffffffffff1603610b08576040517f08c379a0000000000000000000000000000000000000000000000000000000008152600401610aff90611fff565b60405180910390fd5b60011515600160009054906101000a900473ffffffffffffffffffffffffffffffffffffffff1673ffffffffffffffffffffffffffffffffffffffff1663a230c524336040518263ffffffff1660e01b8152600401610b679190611c74565b602060405180830381865afa158015610b84573d6000803e3d6000fd5b505050506040513d601f19601f82011682018060405250810190610ba89190612034565b151514610bea576040517f08c379a0000000000000000000000000000000000000000000000000000000008152600401610be1906120ad565b60405180910390fd5b60026000815480929190610bfd9061232a565b919050555060006003600060025481526020019081526020016000209050600254816000018190555081816001019081610c379190612514565b5060018160040160006101000a81548160ff021916908315150217905550338160040160016101000a81548173ffffffffffffffffffffffffffffffffffffffff021916908373ffffffffffffffffffffffffffffffffffffffff16021790555042816005018190555062069780816006018190555060008160070160006101000a81548160ff0219169083151502179055507f9c770c289ab5bf7e57cb1d23c8ceae993aea46eb64847072fd3d78ca60d3e43260025483604051610cfd9291906125e6565b60405180910390a15050565b6000806003600084815260200190815260200160002090508060040160009054906101000a900460ff161580610d51575080600601548160050154610d4e9190611f56565b42115b915050919050565b600160009054906101000a900473ffffffffffffffffffffffffffffffffffffffff1681565b606080600080600190505b6002548111610e0c576003600082815260200190815260200160002060040160009054906101000a900460ff16158015610de557506003600082815260200190815260200160002060070160009054906101000a900460ff16155b15610df9578180610df59061232a565b9250505b8080610e049061232a565b915050610d8a565b508067ffffffffffffffff811115610e2757610e2661186a565b5b604051908082528060200260200182016040528015610e555781602001602082028036833780820191505090505b5092508067ffffffffffffffff811115610e7257610e7161186a565b5b604051908082528060200260200182016040528015610ea557816020015b6060815260200190600190039081610e905790505b509150600080600190505b6002548111611025576003600082815260200190815260200160002060040160009054906101000a900460ff16158015610f0b57506003600082815260200190815260200160002060070160009054906101000a900460ff16155b15611012576003600082815260200190815260200160002060000154858381518110610f3a57610f39612616565b5b602002602001018181525050600360008281526020019081526020016000206001018054610f6790611df8565b80601f0160208091040260200160405190810160405280929190818152602001828054610f9390611df8565b8015610fe05780601f10610fb557610100808354040283529160200191610fe0565b820191906000526020600020905b815481529060010190602001808311610fc357829003601f168201915b5050505050848381518110610ff857610ff7612616565b5b6020026020010181905250818061100e9061232a565b9250505b808061101d9061232a565b915050610eb0565b5050509091565b60008054906101000a900473ffffffffffffffffffffffffffffffffffffffff1681565b60608060608060025467ffffffffffffffff8111156110725761107161186a565b5b6040519080825280602002602001820160405280156110a05781602001602082028036833780820191505090505b50935060025467ffffffffffffffff8111156110bf576110be61186a565b5b6040519080825280602002602001820160405280156110f257816020015b60608152602001906001900390816110dd5790505b50925060025467ffffffffffffffff8111156111115761111061186a565b5b60405190808252806020026020018201604052801561113f5781602001602082028036833780820191505090505b50915060025467ffffffffffffffff81111561115e5761115d61186a565b5b60405190808252806020026020018201604052801561118c5781602001602082028036833780820191505090505b5090506000600190505b60025481116113375760006003600083815260200190815260200160002090508060000154866001846111c99190612645565b815181106111da576111d9612616565b5b6020026020010181815250508060010180546111f590611df8565b80601f016020809104026020016040519081016040528092919081815260200182805461122190611df8565b801561126e5780601f106112435761010080835404028352916020019161126e565b820191906000526020600020905b81548152906001019060200180831161125157829003601f168201915b5050505050856001846112819190612645565b8151811061129257611291612616565b5b60200260200101819052508060040160009054906101000a900460ff16846001846112bd9190612645565b815181106112ce576112cd612616565b5b6020026020010190151590811515815250508060070160009054906101000a900460ff16836001846113009190612645565b8151811061131157611310612616565b5b60200260200101901515908115158152505050808061132f9061232a565b915050611196565b5090919293565b60025481565b606080600080600190505b60025481116113a3576003600082815260200190815260200160002060070160009054906101000a900460ff161561139057818061138c9061232a565b9250505b808061139b9061232a565b91505061134f565b508067ffffffffffffffff8111156113be576113bd61186a565b5b6040519080825280602002602001820160405280156113ec5781602001602082028036833780820191505090505b5092508067ffffffffffffffff8111156114095761140861186a565b5b60405190808252806020026020018201604052801561143c57816020015b60608152602001906001900390816114275790505b509150600080600190505b600254811161158e576003600082815260200190815260200160002060070160009054906101000a900460ff161561157b5760036000828152602001908152602001600020600001548583815181106114a3576114a2612616565b5b6020026020010181815250506003600082815260200190815260200160002060010180546114d090611df8565b80601f01602080910402602001604051908101604052809291908181526020018280546114fc90611df8565b80156115495780601f1061151e57610100808354040283529160200191611549565b820191906000526020600020905b81548152906001019060200180831161152c57829003601f168201915b505050505084838151811061156157611560612616565b5b602002602001018190525081806115779061232a565b9250505b80806115869061232a565b915050611447565b5050509091565b6000604051905090565b600080fd5b600080fd5b6000819050919050565b6115bc816115a9565b81146115c757600080fd5b50565b6000813590506115d9816115b3565b92915050565b6000602082840312156115f5576115f461159f565b5b6000611603848285016115ca565b91505092915050565b611615816115a9565b82525050565b600081519050919050565b600082825260208201905092915050565b60005b8381101561165557808201518184015260208101905061163a565b60008484015250505050565b6000601f19601f8301169050919050565b600061167d8261161b565b6116878185611626565b9350611697818560208601611637565b6116a081611661565b840191505092915050565b60008115159050919050565b6116c0816116ab565b82525050565b600073ffffffffffffffffffffffffffffffffffffffff82169050919050565b60006116f1826116c6565b9050919050565b611701816116e6565b82525050565b60006101208201905061171d600083018c61160c565b818103602083015261172f818b611672565b905061173e604083018a61160c565b61174b606083018961160c565b61175860808301886116b7565b61176560a08301876116f8565b61177260c083018661160c565b61177f60e083018561160c565b61178d6101008301846116b7565b9a9950505050505050505050565b6117a4816116ab565b81146117af57600080fd5b50565b6000813590506117c18161179b565b92915050565b600080604083850312156117de576117dd61159f565b5b60006117ec858286016115ca565b92505060206117fd858286016117b2565b9150509250929050565b611810816116e6565b811461181b57600080fd5b50565b60008135905061182d81611807565b92915050565b6000602082840312156118495761184861159f565b5b60006118578482850161181e565b91505092915050565b600080fd5b600080fd5b7f4e487b7100000000000000000000000000000000000000000000000000000000600052604160045260246000fd5b6118a282611661565b810181811067ffffffffffffffff821117156118c1576118c061186a565b5b80604052505050565b60006118d4611595565b90506118e08282611899565b919050565b600067ffffffffffffffff821115611900576118ff61186a565b5b61190982611661565b9050602081019050919050565b82818337600083830152505050565b6000611938611933846118e5565b6118ca565b90508281526020810184848401111561195457611953611865565b5b61195f848285611916565b509392505050565b600082601f83011261197c5761197b611860565b5b813561198c848260208601611925565b91505092915050565b6000602082840312156119ab576119aa61159f565b5b600082013567ffffffffffffffff8111156119c9576119c86115a4565b5b6119d584828501611967565b91505092915050565b60006020820190506119f360008301846116b7565b92915050565b6000819050919050565b6000611a1e611a19611a14846116c6565b6119f9565b6116c6565b9050919050565b6000611a3082611a03565b9050919050565b6000611a4282611a25565b9050919050565b611a5281611a37565b82525050565b6000602082019050611a6d6000830184611a49565b92915050565b600081519050919050565b600082825260208201905092915050565b6000819050602082019050919050565b611aa8816115a9565b82525050565b6000611aba8383611a9f565b60208301905092915050565b6000602082019050919050565b6000611ade82611a73565b611ae88185611a7e565b9350611af383611a8f565b8060005b83811015611b24578151611b0b8882611aae565b9750611b1683611ac6565b925050600181019050611af7565b5085935050505092915050565b600081519050919050565b600082825260208201905092915050565b6000819050602082019050919050565b600082825260208201905092915050565b6000611b798261161b565b611b838185611b5d565b9350611b93818560208601611637565b611b9c81611661565b840191505092915050565b6000611bb38383611b6e565b905092915050565b6000602082019050919050565b6000611bd382611b31565b611bdd8185611b3c565b935083602082028501611bef85611b4d565b8060005b85811015611c2b5784840389528151611c0c8582611ba7565b9450611c1783611bbb565b925060208a01995050600181019050611bf3565b50829750879550505050505092915050565b60006040820190508181036000830152611c578185611ad3565b90508181036020830152611c6b8184611bc8565b90509392505050565b6000602082019050611c8960008301846116f8565b92915050565b600081519050919050565b600082825260208201905092915050565b6000819050602082019050919050565b611cc4816116ab565b82525050565b6000611cd68383611cbb565b60208301905092915050565b6000602082019050919050565b6000611cfa82611c8f565b611d048185611c9a565b9350611d0f83611cab565b8060005b83811015611d40578151611d278882611cca565b9750611d3283611ce2565b925050600181019050611d13565b5085935050505092915050565b60006080820190508181036000830152611d678187611ad3565b90508181036020830152611d7b8186611bc8565b90508181036040830152611d8f8185611cef565b90508181036060830152611da38184611cef565b905095945050505050565b6000602082019050611dc3600083018461160c565b92915050565b7f4e487b7100000000000000000000000000000000000000000000000000000000600052602260045260246000fd5b60006002820490506001821680611e1057607f821691505b602082108103611e2357611e22611dc9565b5b50919050565b7f50726f706f73616c20697320616c726561647920636c6f736564000000000000600082015250565b6000611e5f601a83611626565b9150611e6a82611e29565b602082019050919050565b60006020820190508181036000830152611e8e81611e52565b9050919050565b7f4f6e6c792070726f706f736572206f72206f776e65722063616e20636c6f736560008201527f207468652070726f706f73616c00000000000000000000000000000000000000602082015250565b6000611ef1602d83611626565b9150611efc82611e95565b604082019050919050565b60006020820190508181036000830152611f2081611ee4565b9050919050565b7f4e487b7100000000000000000000000000000000000000000000000000000000600052601160045260246000fd5b6000611f61826115a9565b9150611f6c836115a9565b9250828201905080821115611f8457611f83611f27565b5b92915050565b6000604082019050611f9f600083018561160c565b611fac60208301846116b7565b9392505050565b7f44414f20636f6e7472616374206e6f74206c696e6b6564000000000000000000600082015250565b6000611fe9601783611626565b9150611ff482611fb3565b602082019050919050565b6000602082019050818103600083015261201881611fdc565b9050919050565b60008151905061202e8161179b565b92915050565b60006020828403121561204a5761204961159f565b5b60006120588482850161201f565b91505092915050565b7f4f6e6c792044414f206d656d626572732063616e20766f746500000000000000600082015250565b6000612097601983611626565b91506120a282612061565b602082019050919050565b600060208201905081810360008301526120c68161208a565b9050919050565b7f50726f706f73616c206973206e6f742061637469766500000000000000000000600082015250565b6000612103601683611626565b915061210e826120cd565b602082019050919050565b60006020820190508181036000830152612132816120f6565b9050919050565b7f416c726561647920766f746564206f6e20746869732070726f706f73616c0000600082015250565b600061216f601e83611626565b915061217a82612139565b602082019050919050565b6000602082019050818103600083015261219e81612162565b9050919050565b6000815190506121b4816115b3565b92915050565b6000602082840312156121d0576121cf61159f565b5b60006121de848285016121a5565b91505092915050565b7f4e6f20736861726573206f776e65640000000000000000000000000000000000600082015250565b600061221d600f83611626565b9150612228826121e7565b602082019050919050565b6000602082019050818103600083015261224c81612210565b9050919050565b600060808201905061226860008301876116f8565b612275602083018661160c565b61228260408301856116b7565b61228f606083018461160c565b95945050505050565b7f4f6e6c79206f776e65722063616e20706572666f726d2074686973206163746960008201527f6f6e000000000000000000000000000000000000000000000000000000000000602082015250565b60006122f4602283611626565b91506122ff82612298565b604082019050919050565b60006020820190508181036000830152612323816122e7565b9050919050565b6000612335826115a9565b91507fffffffffffffffffffffffffffffffffffffffffffffffffffffffffffffffff820361236757612366611f27565b5b600182019050919050565b60008190508160005260206000209050919050565b60006020601f8301049050919050565b600082821b905092915050565b6000600883026123d47fffffffffffffffffffffffffffffffffffffffffffffffffffffffffffffffff82612397565b6123de8683612397565b95508019841693508086168417925050509392505050565b600061241161240c612407846115a9565b6119f9565b6115a9565b9050919050565b6000819050919050565b61242b836123f6565b61243f61243782612418565b8484546123a4565b825550505050565b600090565b612454612447565b61245f818484612422565b505050565b5b818110156124835761247860008261244c565b600181019050612465565b5050565b601f8211156124c85761249981612372565b6124a284612387565b810160208510156124b1578190505b6124c56124bd85612387565b830182612464565b50505b505050565b600082821c905092915050565b60006124eb600019846008026124cd565b1980831691505092915050565b600061250483836124da565b9150826002028217905092915050565b61251d8261161b565b67ffffffffffffffff8111156125365761253561186a565b5b6125408254611df8565b61254b828285612487565b600060209050601f83116001811461257e576000841561256c578287015190505b61257685826124f8565b8655506125de565b601f19841661258c86612372565b60005b828110156125b45784890151825560018201915060208501945060208101905061258f565b868310156125d157848901516125cd601f8916826124da565b8355505b6001600288020188555050505b505050505050565b60006040820190506125fb600083018561160c565b818103602083015261260d8184611672565b90509392505050565b7f4e487b7100000000000000000000000000000000000000000000000000000000600052603260045260246000fd5b6000612650826115a9565b915061265b836115a9565b925082820390508181111561267357612672611f27565b5b9291505056fea2646970667358221220f71354b2af84a3536325422b396f6f57fa9f630dc7811b0247dcbf7545f4766b64736f6c634300081b0033",
  "linkReferences": {},
  "deployedLinkReferences": {}
}