{
  "_format": "hh-sol-artifact-1",
  "contractName": "Slunicoin",
  "sourceName": "contracts/Token.sol",
  "abi": [
    {
      "inputs": [],
      "stateMutability": "nonpayable",
      "type": "constructor"
    },
    {
      "anonymous": false,
      "inputs": [
        {
          "indexed": true,
          "internalType": "address",
          "name": "from",
          "type": "address"
        },
        {
          "indexed": true,
          "internalType": "address",
          "name": "to",
          "type": "address"
        },
        {
          "indexed": false,
          "internalType": "uint256",
          "name": "value",
          "type": "uint256"
        }
      ],
      "name": "Transfer",
      "type": "event"
    },
    {
      "inputs": [
        {
          "internalType": "address",
          "name": "",
          "type": "address"
        }
      ],
      "name": "balanceOf",
      "outputs": [
        {
          "internalType": "uint256",
          "name": "",
          "type": "uint256"
        }
      ],
      "stateMutability": "view",
      "type": "function"
    },
    {
      "inputs": [],
      "name": "decimals",
      "outputs": [
        {
          "internalType": "uint8",
          "name": "",
          "type": "uint8"
        }
      ],
      "stateMutability": "view",
      "type": "function"
    },
    {
      "inputs": [],
      "name": "name",
      "outputs": [
        {
          "internalType": "string",
          "name": "",
          "type": "string"
        }
      ],
      "stateMutability": "view",
      "type": "function"
    },
    {
      "inputs": [],
      "name": "symbol",
      "outputs": [
        {
          "internalType": "string",
          "name": "",
          "type": "string"
        }
      ],
      "stateMutability": "view",
      "type": "function"
    },
    {
      "inputs": [],
      "name": "totalSupply",
      "outputs": [
        {
          "internalType": "uint256",
          "name": "",
          "type": "uint256"
        }
      ],
      "stateMutability": "view",
      "type": "function"
    },
    {
      "inputs": [
        {
          "internalType": "address",
          "name": "recipient",
          "type": "address"
        },
        {
          "internalType": "uint256",
          "name": "amount",
          "type": "uint256"
        }
      ],
      "name": "transfer",
      "outputs": [
        {
          "internalType": "bool",
          "name": "",
          "type": "bool"
        }
      ],
      "stateMutability": "nonpayable",
      "type": "function"
    },
    {
      "inputs": [
        {
          "internalType": "address",
          "name": "_daoContract",
          "type": "address"
        }
      ],
      "name": "transferToDAO",
      "outputs": [
        {
          "internalType": "bool",
          "name": "success",
          "type": "bool"
        }
      ],
      "stateMutability": "nonpayable",
      "type": "function"
    }
  ],
  "bytecode": "0x60806040526040518060400160405280600981526020017f536c756e69636f696e00000000000000000000000000000000000000000000008152506000908161004891906103f4565b506040518060400160405280600381526020017f534c4300000000000000000000000000000000000000000000000000000000008152506001908161008d91906103f4565b506012600260006101000a81548160ff021916908360ff1602179055503480156100b657600080fd5b5060006301312d009050600260009054906101000a900460ff1660ff16600a6100df9190610628565b816100ea9190610673565b600381905550600354600460003373ffffffffffffffffffffffffffffffffffffffff1673ffffffffffffffffffffffffffffffffffffffff168152602001908152602001600020819055503373ffffffffffffffffffffffffffffffffffffffff16600073ffffffffffffffffffffffffffffffffffffffff167fddf252ad1be2c89b69c2b068fc378daa952ba7f163c4a11628f55a4df523b3ef60035460405161019691906106c4565b60405180910390a3506106df565b600081519050919050565b7f4e487b7100000000000000000000000000000000000000000000000000000000600052604160045260246000fd5b7f4e487b7100000000000000000000000000000000000000000000000000000000600052602260045260246000fd5b6000600282049050600182168061022557607f821691505b602082108103610238576102376101de565b5b50919050565b60008190508160005260206000209050919050565b60006020601f8301049050919050565b600082821b905092915050565b6000600883026102a07fffffffffffffffffffffffffffffffffffffffffffffffffffffffffffffffff82610263565b6102aa8683610263565b95508019841693508086168417925050509392505050565b6000819050919050565b6000819050919050565b60006102f16102ec6102e7846102c2565b6102cc565b6102c2565b9050919050565b6000819050919050565b61030b836102d6565b61031f610317826102f8565b848454610270565b825550505050565b600090565b610334610327565b61033f818484610302565b505050565b5b818110156103635761035860008261032c565b600181019050610345565b5050565b601f8211156103a8576103798161023e565b61038284610253565b81016020851015610391578190505b6103a561039d85610253565b830182610344565b50505b505050565b600082821c905092915050565b60006103cb600019846008026103ad565b1980831691505092915050565b60006103e483836103ba565b9150826002028217905092915050565b6103fd826101a4565b67ffffffffffffffff811115610416576104156101af565b5b610420825461020d565b61042b828285610367565b600060209050601f83116001811461045e576000841561044c578287015190505b61045685826103d8565b8655506104be565b601f19841661046c8661023e565b60005b828110156104945784890151825560018201915060208501945060208101905061046f565b868310156104b157848901516104ad601f8916826103ba565b8355505b6001600288020188555050505b505050505050565b7f4e487b7100000000000000000000000000000000000000000000000000000000600052601160045260246000fd5b60008160011c9050919050565b6000808291508390505b600185111561054c57808604811115610528576105276104c6565b5b60018516156105375780820291505b8081029050610545856104f5565b945061050c565b94509492505050565b6000826105655760019050610621565b816105735760009050610621565b81600181146105895760028114610593576105c2565b6001915050610621565b60ff8411156105a5576105a46104c6565b5b8360020a9150848211156105bc576105bb6104c6565b5b50610621565b5060208310610133831016604e8410600b84101617156105f75782820a9050838111156105f2576105f16104c6565b5b610621565b6106048484846001610502565b9250905081840481111561061b5761061a6104c6565b5b81810290505b9392505050565b6000610633826102c2565b915061063e836102c2565b925061066b7fffffffffffffffffffffffffffffffffffffffffffffffffffffffffffffffff8484610555565b905092915050565b600061067e826102c2565b9150610689836102c2565b9250828202610697816102c2565b915082820484148315176106ae576106ad6104c6565b5b5092915050565b6106be816102c2565b82525050565b60006020820190506106d960008301846106b5565b92915050565b610d35806106ee6000396000f3fe608060405234801561001057600080fd5b506004361061007d5760003560e01c8063313ce5671161005b578063313ce567146100ee57806370a082311461010c57806395d89b411461013c578063a9059cbb1461015a5761007d565b806306fdde031461008257806318160ddd146100a05780632ee509d7146100be575b600080fd5b61008a61018a565b6040516100979190610745565b60405180910390f35b6100a8610218565b6040516100b59190610780565b60405180910390f35b6100d860048036038101906100d391906107fe565b61021e565b6040516100e59190610846565b60405180910390f35b6100f661045d565b604051610103919061087d565b60405180910390f35b610126600480360381019061012191906107fe565b610470565b6040516101339190610780565b60405180910390f35b610144610488565b6040516101519190610745565b60405180910390f35b610174600480360381019061016f91906108c4565b610516565b6040516101819190610846565b60405180910390f35b6000805461019790610933565b80601f01602080910402602001604051908101604052809291908181526020018280546101c390610933565b80156102105780601f106101e557610100808354040283529160200191610210565b820191906000526020600020905b8154815290600101906020018083116101f357829003601f168201915b505050505081565b60035481565b60003273ffffffffffffffffffffffffffffffffffffffff163373ffffffffffffffffffffffffffffffffffffffff161461028e576040517f08c379a0000000000000000000000000000000000000000000000000000000008152600401610285906109b0565b60405180910390fd5b6000600260009054906101000a900460ff1660ff16600a6102af9190610b32565b630121eac06102be9190610b7d565b905080600460003373ffffffffffffffffffffffffffffffffffffffff1673ffffffffffffffffffffffffffffffffffffffff168152602001908152602001600020541015610342576040517f08c379a000000000000000000000000000000000000000000000000000000000815260040161033990610c0b565b60405180910390fd5b80600460003373ffffffffffffffffffffffffffffffffffffffff1673ffffffffffffffffffffffffffffffffffffffff16815260200190815260200160002060008282546103919190610c2b565b9250508190555080600460008573ffffffffffffffffffffffffffffffffffffffff1673ffffffffffffffffffffffffffffffffffffffff16815260200190815260200160002060008282546103e79190610c5f565b925050819055508273ffffffffffffffffffffffffffffffffffffffff163373ffffffffffffffffffffffffffffffffffffffff167fddf252ad1be2c89b69c2b068fc378daa952ba7f163c4a11628f55a4df523b3ef8360405161044b9190610780565b60405180910390a36001915050919050565b600260009054906101000a900460ff1681565b60046020528060005260406000206000915090505481565b6001805461049590610933565b80601f01602080910402602001604051908101604052809291908181526020018280546104c190610933565b801561050e5780601f106104e35761010080835404028352916020019161050e565b820191906000526020600020905b8154815290600101906020018083116104f157829003601f168201915b505050505081565b600081600460003373ffffffffffffffffffffffffffffffffffffffff1673ffffffffffffffffffffffffffffffffffffffff16815260200190815260200160002054101561059a576040517f08c379a000000000000000000000000000000000000000000000000000000000815260040161059190610cdf565b60405180910390fd5b81600460003373ffffffffffffffffffffffffffffffffffffffff1673ffffffffffffffffffffffffffffffffffffffff16815260200190815260200160002060008282546105e99190610c2b565b9250508190555081600460008573ffffffffffffffffffffffffffffffffffffffff1673ffffffffffffffffffffffffffffffffffffffff168152602001908152602001600020600082825461063f9190610c5f565b925050819055508273ffffffffffffffffffffffffffffffffffffffff163373ffffffffffffffffffffffffffffffffffffffff167fddf252ad1be2c89b69c2b068fc378daa952ba7f163c4a11628f55a4df523b3ef846040516106a39190610780565b60405180910390a36001905092915050565b600081519050919050565b600082825260208201905092915050565b60005b838110156106ef5780820151818401526020810190506106d4565b60008484015250505050565b6000601f19601f8301169050919050565b6000610717826106b5565b61072181856106c0565b93506107318185602086016106d1565b61073a816106fb565b840191505092915050565b6000602082019050818103600083015261075f818461070c565b905092915050565b6000819050919050565b61077a81610767565b82525050565b60006020820190506107956000830184610771565b92915050565b600080fd5b600073ffffffffffffffffffffffffffffffffffffffff82169050919050565b60006107cb826107a0565b9050919050565b6107db816107c0565b81146107e657600080fd5b50565b6000813590506107f8816107d2565b92915050565b6000602082840312156108145761081361079b565b5b6000610822848285016107e9565b91505092915050565b60008115159050919050565b6108408161082b565b82525050565b600060208201905061085b6000830184610837565b92915050565b600060ff82169050919050565b61087781610861565b82525050565b6000602082019050610892600083018461086e565b92915050565b6108a181610767565b81146108ac57600080fd5b50565b6000813590506108be81610898565b92915050565b600080604083850312156108db576108da61079b565b5b60006108e9858286016107e9565b92505060206108fa858286016108af565b9150509250929050565b7f4e487b7100000000000000000000000000000000000000000000000000000000600052602260045260246000fd5b6000600282049050600182168061094b57607f821691505b60208210810361095e5761095d610904565b5b50919050565b7f4e6f20636f6e74726163742063616c6c7320616c6c6f77656400000000000000600082015250565b600061099a6019836106c0565b91506109a582610964565b602082019050919050565b600060208201905081810360008301526109c98161098d565b9050919050565b7f4e487b7100000000000000000000000000000000000000000000000000000000600052601160045260246000fd5b60008160011c9050919050565b6000808291508390505b6001851115610a5657808604811115610a3257610a316109d0565b5b6001851615610a415780820291505b8081029050610a4f856109ff565b9450610a16565b94509492505050565b600082610a6f5760019050610b2b565b81610a7d5760009050610b2b565b8160018114610a935760028114610a9d57610acc565b6001915050610b2b565b60ff841115610aaf57610aae6109d0565b5b8360020a915084821115610ac657610ac56109d0565b5b50610b2b565b5060208310610133831016604e8410600b8410161715610b015782820a905083811115610afc57610afb6109d0565b5b610b2b565b610b0e8484846001610a0c565b92509050818404811115610b2557610b246109d0565b5b81810290505b9392505050565b6000610b3d82610767565b9150610b4883610767565b9250610b757fffffffffffffffffffffffffffffffffffffffffffffffffffffffffffffffff8484610a5f565b905092915050565b6000610b8882610767565b9150610b9383610767565b9250828202610ba181610767565b91508282048414831517610bb857610bb76109d0565b5b5092915050565b7f53616c646f20696e73756666696369656e746500000000000000000000000000600082015250565b6000610bf56013836106c0565b9150610c0082610bbf565b602082019050919050565b60006020820190508181036000830152610c2481610be8565b9050919050565b6000610c3682610767565b9150610c4183610767565b9250828203905081811115610c5957610c586109d0565b5b92915050565b6000610c6a82610767565b9150610c7583610767565b9250828201905080821115610c8d57610c8c6109d0565b5b92915050565b7f496e73756666696369656e742062616c616e6365000000000000000000000000600082015250565b6000610cc96014836106c0565b9150610cd482610c93565b602082019050919050565b60006020820190508181036000830152610cf881610cbc565b905091905056fea2646970667358221220fdb511e5a4534db8752f7bcd6c8c4525f4c2212f79e04bb2c5471f4d440021c364736f6c634300081b0033",
  "linkReferences": {},
  "deployedLinkReferences": {}
}