{
  "_format": "hh-sol-artifact-1",
  "contractName": "DAOContract",
  "sourceName": "contracts/MyDAO.sol",
  "abi": [
    {
      "inputs": [],
      "stateMutability": "nonpayable",
      "type": "constructor"
    },
    {
      "anonymous": false,
      "inputs": [
        {
          "indexed": true,
          "internalType": "address",
          "name": "sender",
          "type": "address"
        },
        {
          "indexed": false,
          "internalType": "uint256",
          "name": "amount",
          "type": "uint256"
        }
      ],
      "name": "FundsDeposited",
      "type": "event"
    },
    {
      "anonymous": false,
      "inputs": [
        {
          "indexed": true,
          "internalType": "address",
          "name": "member",
          "type": "address"
        }
      ],
      "name": "NewMemberAdded",
      "type": "event"
    },
    {
      "anonymous": false,
      "inputs": [
        {
          "indexed": false,
          "internalType": "bool",
          "name": "newState",
          "type": "bool"
        }
      ],
      "name": "SaleStateChanged",
      "type": "event"
    },
    {
      "anonymous": false,
      "inputs": [
        {
          "indexed": true,
          "internalType": "address",
          "name": "buyer",
          "type": "address"
        },
        {
          "indexed": false,
          "internalType": "uint256",
          "name": "shares",
          "type": "uint256"
        },
        {
          "indexed": false,
          "internalType": "uint256",
          "name": "tokensRewarded",
          "type": "uint256"
        }
      ],
      "name": "SharesPurchased",
      "type": "event"
    },
    {
      "inputs": [
        {
          "internalType": "uint256",
          "name": "_numShares",
          "type": "uint256"
        }
      ],
      "name": "buyShares",
      "outputs": [],
      "stateMutability": "payable",
      "type": "function"
    },
    {
      "inputs": [],
      "name": "checkContractEthBalance",
      "outputs": [
        {
          "internalType": "uint256",
          "name": "",
          "type": "uint256"
        }
      ],
      "stateMutability": "view",
      "type": "function"
    },
    {
      "inputs": [],
      "name": "checkTokenBalance",
      "outputs": [
        {
          "internalType": "uint256",
          "name": "",
          "type": "uint256"
        }
      ],
      "stateMutability": "view",
      "type": "function"
    },
    {
      "inputs": [
        {
          "internalType": "address",
          "name": "_user",
          "type": "address"
        }
      ],
      "name": "checkUserSlcTokenBalance",
      "outputs": [
        {
          "internalType": "uint256",
          "name": "",
          "type": "uint256"
        }
      ],
      "stateMutability": "view",
      "type": "function"
    },
    {
      "inputs": [
        {
          "internalType": "address",
          "name": "_slunicoinToken",
          "type": "address"
        }
      ],
      "name": "connectTokenContract",
      "outputs": [],
      "stateMutability": "nonpayable",
      "type": "function"
    },
    {
      "inputs": [
        {
          "internalType": "address",
          "name": "_votingContract",
          "type": "address"
        }
      ],
      "name": "connectVotingContract",
      "outputs": [],
      "stateMutability": "nonpayable",
      "type": "function"
    },
    {
      "inputs": [
        {
          "internalType": "address",
          "name": "",
          "type": "address"
        }
      ],
      "name": "isMember",
      "outputs": [
        {
          "internalType": "bool",
          "name": "",
          "type": "bool"
        }
      ],
      "stateMutability": "view",
      "type": "function"
    },
    {
      "inputs": [],
      "name": "isSaleActive",
      "outputs": [
        {
          "internalType": "bool",
          "name": "",
          "type": "bool"
        }
      ],
      "stateMutability": "view",
      "type": "function"
    },
    {
      "inputs": [],
      "name": "owner",
      "outputs": [
        {
          "internalType": "address",
          "name": "",
          "type": "address"
        }
      ],
      "stateMutability": "view",
      "type": "function"
    },
    {
      "inputs": [],
      "name": "sharePrice",
      "outputs": [
        {
          "internalType": "uint256",
          "name": "",
          "type": "uint256"
        }
      ],
      "stateMutability": "view",
      "type": "function"
    },
    {
      "inputs": [
        {
          "internalType": "address",
          "name": "",
          "type": "address"
        }
      ],
      "name": "sharesOwned",
      "outputs": [
        {
          "internalType": "uint256",
          "name": "",
          "type": "uint256"
        }
      ],
      "stateMutability": "view",
      "type": "function"
    },
    {
      "inputs": [],
      "name": "slunicoinToken",
      "outputs": [
        {
          "internalType": "contract IERC20",
          "name": "",
          "type": "address"
        }
      ],
      "stateMutability": "view",
      "type": "function"
    },
    {
      "inputs": [],
      "name": "soldShares",
      "outputs": [
        {
          "internalType": "uint256",
          "name": "",
          "type": "uint256"
        }
      ],
      "stateMutability": "view",
      "type": "function"
    },
    {
      "inputs": [],
      "name": "toggleSaleState",
      "outputs": [],
      "stateMutability": "nonpayable",
      "type": "function"
    },
    {
      "inputs": [],
      "name": "votingContract",
      "outputs": [
        {
          "internalType": "contract DAOVoting",
          "name": "",
          "type": "address"
        }
      ],
      "stateMutability": "view",
      "type": "function"
    },
    {
      "inputs": [],
      "name": "withdrawFunds",
      "outputs": [],
      "stateMutability": "nonpayable",
      "type": "function"
    }
  ],
  "bytecode": "0x6080604052670de0b6b3a76400006003556001600460006101000a81548160ff02191690831515021790555034801561003757600080fd5b50336000806101000a81548173ffffffffffffffffffffffffffffffffffffffff021916908373ffffffffffffffffffffffffffffffffffffffff1602179055506001600660008060009054906101000a900473ffffffffffffffffffffffffffffffffffffffff1673ffffffffffffffffffffffffffffffffffffffff1673ffffffffffffffffffffffffffffffffffffffff16815260200190815260200160002060006101000a81548160ff021916908315150217905550620f4240600560008060009054906101000a900473ffffffffffffffffffffffffffffffffffffffff1673ffffffffffffffffffffffffffffffffffffffff1673ffffffffffffffffffffffffffffffffffffffff1681526020019081526020016000208190555060008054906101000a900473ffffffffffffffffffffffffffffffffffffffff1673ffffffffffffffffffffffffffffffffffffffff167fd35a6cc813c47c11ff9f41f7fe9d463b32db9be612b7f78e9ba6336deb4c590060405160405180910390a2611394806101cb6000396000f3fe6080604052600436106100f35760003560e01c8063791647841161008a578063b39bd9a711610059578063b39bd9a71461031a578063c1fc006a14610345578063d1a93d1814610370578063daaeec861461038c576100f3565b8063791647841461025c57806387269729146102875780638da5cb5b146102b2578063a230c524146102dd576100f3565b8063564566a8116100c6578063564566a8146101b4578063617a2e3e146101df57806367153ab41461020857806372adc22214610233576100f3565b80631810d859146100f857806324600fc31461013557806330cb8a441461014c5780634f73108714610189575b600080fd5b34801561010457600080fd5b5061011f600480360381019061011a9190610da3565b6103a3565b60405161012c9190610de9565b60405180910390f35b34801561014157600080fd5b5061014a6103bb565b005b34801561015857600080fd5b50610173600480360381019061016e9190610da3565b6104b2565b6040516101809190610de9565b60405180910390f35b34801561019557600080fd5b5061019e610557565b6040516101ab9190610de9565b60405180910390f35b3480156101c057600080fd5b506101c96105fa565b6040516101d69190610e1f565b60405180910390f35b3480156101eb57600080fd5b5061020660048036038101906102019190610da3565b61060d565b005b34801561021457600080fd5b5061021d6106df565b60405161022a9190610de9565b60405180910390f35b34801561023f57600080fd5b5061025a60048036038101906102559190610da3565b6106e5565b005b34801561026857600080fd5b506102716107b7565b60405161027e9190610e99565b60405180910390f35b34801561029357600080fd5b5061029c6107dd565b6040516102a99190610de9565b60405180910390f35b3480156102be57600080fd5b506102c76107e3565b6040516102d49190610ec3565b60405180910390f35b3480156102e957600080fd5b5061030460048036038101906102ff9190610da3565b610807565b6040516103119190610e1f565b60405180910390f35b34801561032657600080fd5b5061032f610827565b60405161033c9190610de9565b60405180910390f35b34801561035157600080fd5b5061035a61082f565b6040516103679190610eff565b60405180910390f35b61038a60048036038101906103859190610f46565b610855565b005b34801561039857600080fd5b506103a1610c40565b005b60056020528060005260406000206000915090505481565b60008054906101000a900473ffffffffffffffffffffffffffffffffffffffff1673ffffffffffffffffffffffffffffffffffffffff163373ffffffffffffffffffffffffffffffffffffffff1614610449576040517f08c379a000000000000000000000000000000000000000000000000000000000815260040161044090610ff6565b60405180910390fd5b60008054906101000a900473ffffffffffffffffffffffffffffffffffffffff1673ffffffffffffffffffffffffffffffffffffffff166108fc479081150290604051600060405180830381858888f193505050501580156104af573d6000803e3d6000fd5b50565b6000600160009054906101000a900473ffffffffffffffffffffffffffffffffffffffff1673ffffffffffffffffffffffffffffffffffffffff166370a08231836040518263ffffffff1660e01b815260040161050f9190610ec3565b602060405180830381865afa15801561052c573d6000803e3d6000fd5b505050506040513d601f19601f82011682018060405250810190610550919061102b565b9050919050565b6000600160009054906101000a900473ffffffffffffffffffffffffffffffffffffffff1673ffffffffffffffffffffffffffffffffffffffff166370a08231306040518263ffffffff1660e01b81526004016105b49190610ec3565b602060405180830381865afa1580156105d1573d6000803e3d6000fd5b505050506040513d601f19601f820116820180604052508101906105f5919061102b565b905090565b600460009054906101000a900460ff1681565b60008054906101000a900473ffffffffffffffffffffffffffffffffffffffff1673ffffffffffffffffffffffffffffffffffffffff163373ffffffffffffffffffffffffffffffffffffffff161461069b576040517f08c379a000000000000000000000000000000000000000000000000000000000815260040161069290610ff6565b60405180910390fd5b80600760006101000a81548173ffffffffffffffffffffffffffffffffffffffff021916908373ffffffffffffffffffffffffffffffffffffffff16021790555050565b60025481565b60008054906101000a900473ffffffffffffffffffffffffffffffffffffffff1673ffffffffffffffffffffffffffffffffffffffff163373ffffffffffffffffffffffffffffffffffffffff1614610773576040517f08c379a000000000000000000000000000000000000000000000000000000000815260040161076a90610ff6565b60405180910390fd5b80600160006101000a81548173ffffffffffffffffffffffffffffffffffffffff021916908373ffffffffffffffffffffffffffffffffffffffff16021790555050565b600160009054906101000a900473ffffffffffffffffffffffffffffffffffffffff1681565b60035481565b60008054906101000a900473ffffffffffffffffffffffffffffffffffffffff1681565b60066020528060005260406000206000915054906101000a900460ff1681565b600047905090565b600760009054906101000a900473ffffffffffffffffffffffffffffffffffffffff1681565b600460009054906101000a900460ff166108a4576040517f08c379a000000000000000000000000000000000000000000000000000000000815260040161089b906110ca565b60405180910390fd5b6000600354826108b49190611119565b90508034146108f8576040517f08c379a00000000000000000000000000000000000000000000000000000000081526004016108ef906111f3565b60405180910390fd5b81600560003373ffffffffffffffffffffffffffffffffffffffff1673ffffffffffffffffffffffffffffffffffffffff16815260200190815260200160002060008282546109479190611213565b9250508190555081600260008282546109609190611213565b925050819055506000670de0b6b3a76400008361097d9190611119565b905080600160009054906101000a900473ffffffffffffffffffffffffffffffffffffffff1673ffffffffffffffffffffffffffffffffffffffff166370a08231306040518263ffffffff1660e01b81526004016109db9190610ec3565b602060405180830381865afa1580156109f8573d6000803e3d6000fd5b505050506040513d601f19601f82011682018060405250810190610a1c919061102b565b1015610a5d576040517f08c379a0000000000000000000000000000000000000000000000000000000008152600401610a5490611293565b60405180910390fd5b600160009054906101000a900473ffffffffffffffffffffffffffffffffffffffff1673ffffffffffffffffffffffffffffffffffffffff1663a9059cbb33836040518363ffffffff1660e01b8152600401610aba9291906112b3565b6020604051808303816000875af1158015610ad9573d6000803e3d6000fd5b505050506040513d601f19601f82011682018060405250810190610afd9190611308565b503373ffffffffffffffffffffffffffffffffffffffff167f630b54f21d1c5ae41c4633ad96e8c15ce15665365eded6a38476ffa71c8ace6c8483604051610b46929190611335565b60405180910390a2600660003373ffffffffffffffffffffffffffffffffffffffff1673ffffffffffffffffffffffffffffffffffffffff16815260200190815260200160002060009054906101000a900460ff16610c3b576001600660003373ffffffffffffffffffffffffffffffffffffffff1673ffffffffffffffffffffffffffffffffffffffff16815260200190815260200160002060006101000a81548160ff0219169083151502179055503373ffffffffffffffffffffffffffffffffffffffff167fd35a6cc813c47c11ff9f41f7fe9d463b32db9be612b7f78e9ba6336deb4c590060405160405180910390a25b505050565b60008054906101000a900473ffffffffffffffffffffffffffffffffffffffff1673ffffffffffffffffffffffffffffffffffffffff163373ffffffffffffffffffffffffffffffffffffffff1614610cce576040517f08c379a0000000000000000000000000000000000000000000000000000000008152600401610cc590610ff6565b60405180910390fd5b600460009054906101000a900460ff1615600460006101000a81548160ff0219169083151502179055507fe333f8a36ee86e754548af2d6f50c73ff0d501e22e6c784662123dbbe493c602600460009054906101000a900460ff16604051610d369190610e1f565b60405180910390a1565b600080fd5b600073ffffffffffffffffffffffffffffffffffffffff82169050919050565b6000610d7082610d45565b9050919050565b610d8081610d65565b8114610d8b57600080fd5b50565b600081359050610d9d81610d77565b92915050565b600060208284031215610db957610db8610d40565b5b6000610dc784828501610d8e565b91505092915050565b6000819050919050565b610de381610dd0565b82525050565b6000602082019050610dfe6000830184610dda565b92915050565b60008115159050919050565b610e1981610e04565b82525050565b6000602082019050610e346000830184610e10565b92915050565b6000819050919050565b6000610e5f610e5a610e5584610d45565b610e3a565b610d45565b9050919050565b6000610e7182610e44565b9050919050565b6000610e8382610e66565b9050919050565b610e9381610e78565b82525050565b6000602082019050610eae6000830184610e8a565b92915050565b610ebd81610d65565b82525050565b6000602082019050610ed86000830184610eb4565b92915050565b6000610ee982610e66565b9050919050565b610ef981610ede565b82525050565b6000602082019050610f146000830184610ef0565b92915050565b610f2381610dd0565b8114610f2e57600080fd5b50565b600081359050610f4081610f1a565b92915050565b600060208284031215610f5c57610f5b610d40565b5b6000610f6a84828501610f31565b91505092915050565b600082825260208201905092915050565b7f6f6e6c7920746865206f776e65722063616e20706572666f726d20746869732060008201527f616374696f6e0000000000000000000000000000000000000000000000000000602082015250565b6000610fe0602683610f73565b9150610feb82610f84565b604082019050919050565b6000602082019050818103600083015261100f81610fd3565b9050919050565b60008151905061102581610f1a565b92915050565b60006020828403121561104157611040610d40565b5b600061104f84828501611016565b91505092915050565b7f576520617265206e6f742073656c6c696e67207368617265732072696768742060008201527f6e6f772c20706c65617365207265747279206c61746572000000000000000000602082015250565b60006110b4603783610f73565b91506110bf82611058565b604082019050919050565b600060208201905081810360008301526110e3816110a7565b9050919050565b7f4e487b7100000000000000000000000000000000000000000000000000000000600052601160045260246000fd5b600061112482610dd0565b915061112f83610dd0565b925082820261113d81610dd0565b91508282048414831517611154576111536110ea565b5b5092915050565b7f496e636f7272656374207061796d656e7420616d6f756e742c2074686520636860008201527f616e67652069732031204554482078207368617265732c206578616d706c653a60208201527f203520736861726573203d203520455448000000000000000000000000000000604082015250565b60006111dd605183610f73565b91506111e88261115b565b606082019050919050565b6000602082019050818103600083015261120c816111d0565b9050919050565b600061121e82610dd0565b915061122983610dd0565b9250828201905080821115611241576112406110ea565b5b92915050565b7f4e6f7420656e6f75676820746f6b656e7320666f722072657761726473000000600082015250565b600061127d601d83610f73565b915061128882611247565b602082019050919050565b600060208201905081810360008301526112ac81611270565b9050919050565b60006040820190506112c86000830185610eb4565b6112d56020830184610dda565b9392505050565b6112e581610e04565b81146112f057600080fd5b50565b600081519050611302816112dc565b92915050565b60006020828403121561131e5761131d610d40565b5b600061132c848285016112f3565b91505092915050565b600060408201905061134a6000830185610dda565b6113576020830184610dda565b939250505056fea264697066735822122049fa556c019dba5adc307a36be7c318825cdaa58bae70ceccc0242e5660a2c3a64736f6c634300081b0033",
  "linkReferences": {},
  "deployedLinkReferences": {}
}